:020000040000FA
:100000000C9462000C947F000C947F000C947F0091
:100010000C947F000C947F000C947F000C94990248
:100020000C947F000C947F000C947F000C947F0054
:100030000C947F000C947F000C947F000C947F0044
:100040000C94F5020C947F000C947F000C947F00BC
:100050000C947F000C947F000C947F000C947F0024
:100060000C947F000C947F00000000002400270007
:100070002A0000000000250028002B0000000000DE
:1000800023002600290004040404040404040202DA
:100090000202020203030303030301020408102007
:1000A0004080010204081020010204081020000012
:1000B0000008000201000003040700000000000027
:1000C0000000020011241FBECFEFD8E0DEBFCDBF7D
:1000D00011E0A0E0B1E0EAEAF7E002C005900D927D
:1000E000A230B107D9F721E0A2E0B1E001C01D9232
:1000F000A232B207E1F70E943F030C94D3030C94A1
:100100000000833081F028F4813099F08230A9F02A
:1001100008958730A9F08830C9F08430B1F4809117
:1001200080008F7D03C0809180008F778093800056
:10013000089584B58F7784BD089584B58F7DFBCFF6
:100140008091B0008F778093B00008958091B000C7
:100150008F7DF9CFCF93DF93282F30E0F901E2555F
:10016000FF4F8491F901E656FF4FD491F901EA5708
:10017000FF4FC491CC23A1F081110E948100EC2F8C
:10018000F0E0EE0FFF1FE458FF4FA591B491EC9102
:10019000ED2381E090E009F480E0DF91CF910895B4
:1001A00080E090E0FACF1F93CF93DF93282F30E0C9
:1001B000F901E255FF4F8491F901E656FF4FD491C2
:1001C000F901EA57FF4FC491CC23A9F0162F8111F2
:1001D0000E948100EC2FF0E0EE0FFF1FEE58FF4F62
:1001E000A591B4918FB7F894EC91111108C0D095F6
:1001F000DE23DC938FBFDF91CF911F910895DE2B1B
:10020000F8CF9091000189130BC0E2ECF0E0E4918B
:100210009FEF90930001E13049F028F0E23061F067
:1002200060E00C94D30010926E00FACF90916F00B2
:100230009D7F90936F00F4CF909170009D7F90937D
:10024000700091E09093B0009091B100987F94601D
:100250009093B1001092B300E3CFCF93DF9390E07F
:10026000FC01E656FF4F24918A579F4FFC01849171
:100270008823D1F090E0880F991FFC01E859FF4FC7
:10028000A591B491FC01EE58FF4FC591D491623015
:1002900071F49FB7F8943C91822F809583238C93BF
:1002A000E8812E2B28839FBFDF91CF9108958FB7D0
:1002B000F894EC912E2B2C938FBFF6CF3FB7F89488
:1002C0008091110190911201A0911301B09114013C
:1002D00026B5A89B05C02F3F19F00196A11DB11DA1
:1002E0003FBFBA2FA92F982F8827BC01CD01620FDD
:1002F000711D811D911D42E0660F771F881F991F98
:100300004A95D1F708958F929F92AF92BF92CF9264
:10031000DF92EF92FF92CF93809100018C3099F1A0
:100320008F3F09F459C00E945E014B015C018AE0D5
:10033000C82ED12CE12CF12C0E945E01681979099C
:100340008A099B09683E734081059105A8F321E065
:10035000C21AD108E108F10888EE880E83E0981EE1
:10036000A11CB11CC114D104E104F10429F78CE0F3
:10037000CF91FF90EF90DF90CF90BF90AF909F9084
:100380008F900C940101E2ECF0E0C491C7FDCBCF5B
:1003900061E08CE00E942D01CC2309F48CC0C230B6
:1003A00009F0A0C08091B100887F83608093B10084
:1003B0008FEC8093B3008FEF9FEFDC0180931801E7
:1003C00090931901A0931A01B0931B0180917000C2
:1003D000826080937000A7CF8CE080930001E2ECF4
:1003E000F0E0C491CF3F09F49ECFC13021F150F02D
:1003F000C23009F43EC0C7FD96CF61E08CE00E9498
:100400002D01CDCF14BC15BC84B5826084BD85B5EB
:10041000816085BDE2E9F0E0E491F0E0EE0FFF1FBE
:10042000EE58FF4F85919491E6EAF0E0E491E09375
:100430000301C0E0ADCF1092800010928100809146
:100440008100886080938100809181008160809329
:100450008100E2E9F0E0E491F0E0EE0FFF1FEE58DA
:10046000FF4F85919491E6EAF0E0E491E093020178
:100470008FCF1092B0001092B1008091B0008260D6
:100480008093B0008091B10081608093B100E2E977
:10049000F0E0E491F0E0EE0FFF1FEE58FF4F859182
:1004A00094919093160180931501E6EAF0E0E491AF
:1004B000E09317016DCF85B5887F836085BD87E6A2
:1004C00087BD8FEF9FEFDC018093080190930901B6
:1004D000A0930A01B0930B0180916E00826080931B
:1004E0006E0021CFC130E9F480918100887F816066
:1004F0008093810089E09AE190938900809388003D
:100500008FEF9FEFDC018093040190930501A0938E
:100510000601B093070180916F00826080936F00A5
:1005200002CFC23021F0C111FECE89E0C9CF89E0EF
:1005300040CF1F920F920FB60F9211242F933F932B
:100540004F935F936F937F938F939F93AF93BF93DB
:10055000EF93FF938091180190911901A0911A01D6
:10056000B0911B01892B8A2B8B2BD1F19091170114
:10057000E0911501F0911601808189278083809197
:10058000180190911901A0911A01B0911B01181640
:1005900019061A061B069CF4809118019091190106
:1005A000A0911A01B0911B010197A109B109809393
:1005B000180190931901A0931A01B0931B01FF91A8
:1005C000EF91BF91AF919F918F917F916F915F91CB
:1005D0004F913F912F910F900FBE0F901F90189544
:1005E000809100010E940101EACF1F920F920FB685
:1005F0000F9211242F933F938F939F93AF93BF93A9
:1006000080910D0190910E01A0910F01B091100108
:1006100030910C0123E0230F2D3758F50196A11DD1
:10062000B11D20930C0180930D0190930E01A093B6
:100630000F01B09310018091110190911201A091CE
:100640001301B09114010196A11DB11D80931101F8
:1006500090931201A0931301B0931401BF91AF9135
:100660009F918F913F912F910F900FBE0F901F90F0
:10067000189526E8230F0296A11DB11DD2CF7894BC
:1006800084B5826084BD84B5816084BD85B5826097
:1006900085BD85B5816085BD80916E008160809348
:1006A0006E001092810080918100826080938100B1
:1006B00080918100816080938100809180008160C1
:1006C000809380008091B10084608093B10080911C
:1006D000B00081608093B00080917A008460809344
:1006E0007A0080917A00826080937A0080917A000B
:1006F000816080937A0080917A00806880937A008C
:100700001092C10062E082E00E942D0162E083E06D
:100710000E942D0161E08DE00E942D0161E08CE0DE
:100720000E942D0180E0E82E80E0F82ECC24C394B6
:10073000D12C82E00E94AA008C0190932101809329
:10074000200183E00E94AA00EC0190931F01809396
:100750001E0180911C0190911D01892B61F4012BD8
:1007600051F461E08DE00E94D3000E948301D09299
:100770001D01C0921C0180911C0190911D010197E7
:1007800061F4CD2B51F460E08DE00E94D3000E9413
:10079000830110921D0110921C01E114F10449F231
:0C07A0000E940000C6CFF894FFCFFF00BD
:107E0000112484B714BE81FFF0D085E080938100F7
:107E100082E08093C00088E18093C10086E0809377
:107E2000C20080E18093C4008EE0C9D0259A86E02C
:107E300020E33CEF91E0309385002093840096BBD3
:107E4000B09BFECF1D9AA8958150A9F7CC24DD24C4
:107E500088248394B5E0AB2EA1E19A2EF3E0BF2EE7
:107E6000A2D0813461F49FD0082FAFD0023811F036
:107E7000013811F484E001C083E08DD089C08234E0
:107E800011F484E103C0853419F485E0A6D080C0E4
:107E9000853579F488D0E82EFF2485D0082F10E0AE
:107EA000102F00270E291F29000F111F8ED06801E7
:107EB0006FC0863521F484E090D080E0DECF843638
:107EC00009F040C070D06FD0082F6DD080E0C81688
:107ED00080E7D80618F4F601B7BEE895C0E0D1E017
:107EE00062D089930C17E1F7F0E0CF16F0E7DF06D8
:107EF00018F0F601B7BEE89568D007B600FCFDCFD4
:107F0000A601A0E0B1E02C9130E011968C91119780
:107F100090E0982F8827822B932B1296FA010C0160
:107F200087BEE89511244E5F5F4FF1E0A038BF0790
:107F300051F7F601A7BEE89507B600FCFDCF97BE46
:107F4000E89526C08437B1F42ED02DD0F82E2BD052
:107F50003CD0F601EF2C8F010F5F1F4F84911BD097
:107F6000EA94F801C1F70894C11CD11CFA94CF0C13
:107F7000D11C0EC0853739F428D08EE10CD085E9AC
:107F80000AD08FE07ACF813511F488E018D01DD067
:107F900080E101D065CF982F8091C00085FFFCCF94
:107FA0009093C60008958091C00087FFFCCF809118
:107FB000C00084FD01C0A8958091C6000895E0E648
:107FC000F0E098E1908380830895EDDF803219F02E
:107FD00088E0F5DFFFCF84E1DECF1F93182FE3DFCA
:107FE0001150E9F7F2DF1F91089580E0E8DFEE27F6
:047FF000FF270994CA
:027FFE00040479
:00000001FF
